{
  "contractName": "FinalProject_Marketplace",
  "abi": [
    {
      "inputs": [],
      "stateMutability": "nonpayable",
      "type": "constructor"
    },
    {
      "anonymous": false,
      "inputs": [],
      "name": "IsDelivered",
      "type": "event"
    },
    {
      "anonymous": false,
      "inputs": [],
      "name": "IsShipped",
      "type": "event"
    },
    {
      "inputs": [],
      "name": "owner",
      "outputs": [
        {
          "internalType": "address payable",
          "name": "",
          "type": "address"
        }
      ],
      "stateMutability": "view",
      "type": "function"
    },
    {
      "inputs": [],
      "name": "shipped",
      "outputs": [],
      "stateMutability": "nonpayable",
      "type": "function"
    },
    {
      "inputs": [],
      "name": "delivered",
      "outputs": [],
      "stateMutability": "nonpayable",
      "type": "function"
    },
    {
      "inputs": [],
      "name": "getStatus",
      "outputs": [
        {
          "internalType": "enum FinalProject_Marketplace.ShippingStatus",
          "name": "",
          "type": "uint8"
        }
      ],
      "stateMutability": "view",
      "type": "function"
    },
    {
      "inputs": [],
      "name": "Status",
      "outputs": [
        {
          "internalType": "enum FinalProject_Marketplace.ShippingStatus",
          "name": "",
          "type": "uint8"
        }
      ],
      "stateMutability": "payable",
      "type": "function"
    }
  ],
  "bytecode": "0x608060405234801561001057600080fd5b50336000806101000a81548173ffffffffffffffffffffffffffffffffffffffff021916908373ffffffffffffffffffffffffffffffffffffffff16021790555060008060146101000a81548160ff0219169083600281111561007657610075610080565b5b02179055506100af565b7f4e487b7100000000000000000000000000000000000000000000000000000000600052602160045260246000fd5b610421806100be6000396000f3fe60806040526004361061004a5760003560e01c806345f09ce91461004f5780634e69d5601461006d5780638da5cb5b14610098578063ba446ae9146100c3578063bbdfbfba146100da575b600080fd5b6100576100f1565b6040516100649190610374565b60405180910390f35b34801561007957600080fd5b50610082610107565b60405161008f9190610374565b60405180910390f35b3480156100a457600080fd5b506100ad610177565b6040516100ba91906103d0565b60405180910390f35b3480156100cf57600080fd5b506100d861019b565b005b3480156100e657600080fd5b506100ef61024c565b005b60008060149054906101000a900460ff16905090565b60008060009054906101000a900473ffffffffffffffffffffffffffffffffffffffff1673ffffffffffffffffffffffffffffffffffffffff163373ffffffffffffffffffffffffffffffffffffffff161461016257600080fd5b600060149054906101000a900460ff16905090565b60008054906101000a900473ffffffffffffffffffffffffffffffffffffffff1681565b60008054906101000a900473ffffffffffffffffffffffffffffffffffffffff1673ffffffffffffffffffffffffffffffffffffffff163373ffffffffffffffffffffffffffffffffffffffff16146101f357600080fd5b6001600060146101000a81548160ff02191690836002811115610219576102186102fd565b5b02179055507f6d698d70d4f24eb18cc8f76855e78a2771edd10a3d987f47da2fcf91dcd10dba60405160405180910390a1565b60008054906101000a900473ffffffffffffffffffffffffffffffffffffffff1673ffffffffffffffffffffffffffffffffffffffff163373ffffffffffffffffffffffffffffffffffffffff16146102a457600080fd5b6002600060146101000a81548160ff021916908360028111156102ca576102c96102fd565b5b02179055507f15a964f17572715f392505f0e310aaae53bc195dc2cfb85ab1309249cd8a0be260405160405180910390a1565b7f4e487b7100000000000000000000000000000000000000000000000000000000600052602160045260246000fd5b6003811061033d5761033c6102fd565b5b50565b600081905061034e8261032c565b919050565b600061035e82610340565b9050919050565b61036e81610353565b82525050565b60006020820190506103896000830184610365565b92915050565b600073ffffffffffffffffffffffffffffffffffffffff82169050919050565b60006103ba8261038f565b9050919050565b6103ca816103af565b82525050565b60006020820190506103e560008301846103c1565b9291505056fea2646970667358221220916e333ee6d24d0129555a981fb55a777251cc51a348da41f13b134158e6e07264736f6c634300080d0033",
  "immutableReferences": {},
  "source": "// SPDX-License-Identifier: GPL-3.0\npragma solidity >=0.8.2 <0.9.0;\n\ncontract FinalProject_Marketplace {\n\n    address payable public owner;\n\n    enum ShippingStatus {PENDING, SHIPPED, DELIVERED}\n    ShippingStatus status;\n\n    event IsDelivered();\n    event IsShipped();\n\n    modifier onlyOwner() {\n        require(msg.sender == owner);\n        _;\n    }\n\n    constructor() public {\n        owner = payable(msg.sender);\n        status = ShippingStatus.PENDING;\n    }\n\n    function shipped() public onlyOwner {\n        status = ShippingStatus.SHIPPED;\n        emit IsShipped();\n\n    }\n\n    function delivered() public onlyOwner {\n        status = ShippingStatus.DELIVERED;\n        emit IsDelivered();\n    }\n\n    function getStatus() public view onlyOwner returns (ShippingStatus) {\n        return status;\n    }\n\n    function Status() public payable returns (ShippingStatus) {\n        return status;\n    }\n}\n",
  "sourcePath": "D:\\Ynov\\M2\\Blockchain\\FinalProject\\contracts\\FinalProject.sol",
  "compiler": {
    "name": "solc",
    "version": "0.8.13+commit.abaa5c0e.Emscripten.clang"
  },
  "schemaVersion": "3.4.13",
  "updatedAt": "2023-03-09T11:27:12.679Z",
  "devdoc": {
    "kind": "dev",
    "methods": {},
    "version": 1
  },
  "userdoc": {
    "kind": "user",
    "methods": {},
    "version": 1
  }
}